:020000040800F2
:100000000050002021020008270200082B020008EF
:100010009D020008A1020008E9020008000000009B
:100020000000000000000000000000003103000894
:100030003503000800000000390300083D030008F4
:100040004D0300084D0300084D0300084D03000850
:100050004D0300084D0300084D0300084D03000840
:100060004D0300084D0300084D0300084D03000830
:100070004D0300084D0300084D0300084D03000820
:100080004D0300084D0300084D0300084D03000810
:100090004D0300084D0300084D0300084D03000800
:1000A0004D0300084D0300084D0300084D030008F0
:1000B0004D0300084D0300084D0300084D030008E0
:1000C0004D0300084D0300084D0300084D030008D0
:1000D0004D0300084D0300084D0300084D030008C0
:1000E0004D0300084D0300084D0300080000000008
:1000F0000000000000000000000000000000000000
:1001000000000000000000005FF808F100B583B0B7
:1001100000F0A4FD304B314A1360314A1360314B7B
:10012000314A03E052F8041B43F8041B2F498B4269
:10013000F8D32A4B1A682E4B9A4200D0FEE7284B80
:100140001A682C4B9A42F9D1234B2B4A13602B4A45
:1001500013602B4B02E0002243F8042B294A934200
:10016000F9D3254B1B6813B9244B1B6803B1FEE779
:1001700000F080FD694601A800F000FD224C234BF1
:10018000E41AA410002504E0204B53F825309847CA
:100190000135AC42F8DC1E4C1E4BE41AA4100025BD
:1001A00004E01C4B53F8253098470135AC42F8DC8D
:1001B0000099019801F04CF90546174C174BE41AC9
:1001C000A41004E0013C154B53F824309847002C50
:1001D000F8DC284600F0A4FCBABADECA0000002011
:1001E0009800002000000020282B00089C00002020
:1001F00078563412325476989C000020600100201A
:100200009C000020640100207803000878030008A7
:1002100078030008780300087803000878030008D2
:1002200008B5FFF773FF00BEFEE71EF0040F0CBF1A
:10023000EFF30880EFF309807146414A10472DE93A
:10024000F04182B004468846124B5E6B9F6B9D6AFC
:100250001B6B13F0020F03D00E4BDB6A002B0CDB81
:100260000D4800F09DFCCDF800803B463246294603
:10027000204600F003FD00BEFEE74BF6AB6100F048
:1002800077FD0028ECD0034B4FF00042DA6202B059
:10029000BDE8F08100ED00E06429000800BEFEE743
:1002A0001EF0040F0CBFEFF30880EFF309807146D6
:1002B000244A10472DE9F04182B004468846084B95
:1002C0005E6B9F6B9D6A074800F06AFCCDF800806A
:1002D0003B4632462946204600F0D0FC00BEFEE7F1
:1002E00000ED00E0742900081EF0040F0CBFEFF3CE
:1002F0000880EFF309807146134A10472DE9F04159
:1003000082B004468846084B5E6B9F6B9D6A074827
:1003100000F046FCCDF800803B4632462946204698
:1003200000F0ACFC00BEFEE700ED00E08029000814
:1003300000BEFEE700BEFEE700BEFEE7704700001D
:100340003F020008B5020008FD02000800BEFEE7FB
:10035000282B0008000000209C000020282B00080B
:1003600000000000000000009C000020640100204C
:08037000000000000000000085
:10037800F8B505460C46494B98421BD003F58063F7
:10038800984217D003F58063984213D003F5806331
:1003980098420FD003F5806398420BD003F5806331
:1003A800984207D003F58063984203D0B2213C48B5
:1003B80000F0E8FBE3786BB1042B0BD0282B09D0B5
:1003C800482B07D0142B05D0102B03D01C2B01D0A1
:1003D800182B14D12388BBB1E37803F00F063046FD
:1003E80013F0100F06D0A378013BDBB2022B10D814
:1003F800A078304323785BB32E68002310E0B32144
:10040800274800F0BFFBE5E7B421254800F0BAFB18
:10041800E2E7BB21224800F0B5FBE9E76A61013356
:10042800072B14D801229A40218832EA0101F6D11B
:1004380099000F278F4026EA070600FA01F10E43BC
:10044800E1782829EAD04829E9D12A61E7E72E602E
:100458002388FF2B20D96E68002302E06A6115E02B
:100468000133072B17D803F1080101228A4021889C
:1004780032EA0101F4D199000F278F4026EA0706D6
:1004880000FA01F10E43E1782829E7D0E1784829FC
:10049800E6D12A61E4E76E60F8BD00BF00080140BC
:1004A8007027000838B504460D462A4B98421CD0E0
:1004B80003F58063984218D003F58063984214D0FE
:1004C80003F58063984210D003F5806398420CD0FE
:1004D80003F58063984208D003F58063984204D0FE
:1004E8004FF48F711C4800F04DFB6B1E9BB2012B23
:1004F80023D9042D21D0082D1FD0102D1DD0202D3B
:100508001BD0402D19D0802D17D0B5F5807F14D081
:10051800B5F5007F11D0B5F5806F0ED0B5F5006F39
:100528000BD0B5F5805F08D0B5F5005F05D0B5F5FF
:10053800804F02D0B5F5004F04D1A3681D4207D003
:10054800012038BD40F21F11034800F01BFBF4E7FF
:100558000020F6E7000801407027000838B5044677
:100568000D46144B98421CD003F58063984218D06E
:1005780003F58063984214D003F58063984210D045
:1005880003F5806398420CD003F58063984208D045
:1005980003F58063984204D040F26911064800F0E0
:1005A800F1FA0DB1256138BD4FF4B571024800F07C
:1005B800E9FAF7E7000801407027000838B5044653
:1005C8000D46144B98421CD003F58063984218D00E
:1005D80003F58063984214D003F58063984210D0E5
:1005E80003F5806398420CD003F58063984208D0E5
:1005F80003F58063984204D040F27911064800F070
:10060800C1FA0DB1656138BD4FF4BD71024800F003
:10061800B9FAF7E7000801407027000870B50446EA
:100628000D4616462D4B98421CD003F58063984220
:1006380018D003F58063984214D003F5806398427C
:1006480010D003F5806398420CD003F5806398427C
:1006580008D003F58063984204D040F28D112048F9
:1006680000F090FA6B1E9BB2012B23D9042D21D0E8
:10067800082D1FD0102D1DD0202D1BD0402D19D096
:10068800802D17D0B5F5807F14D0B5F5007F11D037
:10069800B5F5806F0ED0B5F5006F0BD0B5F5805F5E
:1006A80008D0B5F5005F05D0B5F5804F02D0B5F597
:1006B800004F04D1012E08D86EB1256170BD4FF4EA
:1006C800C771074800F05EFAF4E740F28F1104485A
:1006D80000F058FAF0E76561F0E700BF0008014054
:1006E8007027000810B4294B5B6803F00C03042B37
:1006F8002BD0082B2CD013B1254B036001E0244BE1
:10070800036022494B68C3F30313224CE35CDAB25B
:100718000368D34043604A68C2F30222A25CD2B2A3
:1007280023FA02F282604A68C2F3C222A25CD2B201
:10073800D340C3604A68C2F3813217498A5CD2B297
:10074800B3FBF2F3036110BC7047144B0360D8E7A6
:100758000E4A53685268C3F38343023312F4803F4E
:1007680004D10F4A02FB03F30360CAE7074A526841
:1007780012F4003F04D00B4A02FB03F30360C0E706
:10078800064A02FB03F30360BBE700BF0010024008
:1007980000127A000800002004000020001BB700A7
:1007A80000093D00808D5B0038B504460D460E4BB0
:1007B800034003B920B940F24A410C4800F0E2F97D
:1007C800012D05D855B10A4A93691C43946138BD77
:1007D80040F24B41054800F0D5F9F3E7044A936924
:1007E80023EA04049461F2E70200C0FFA42700088A
:1007F8000010024030B587B004460D46674B98425A
:1008080013D0A3F5744398420FD003F58063984240
:100818000BD003F58063984207D003F580639842B4
:1008280003D0B8215E4800F0ADF92B68013B5D4A62
:10083800934200F28580AB881BB1B3F5805F40F02E
:100848008480EB8843B1B3F5805F05D0B3F5005FD2
:1008580002D0B3F5405F7DD12B892BB1B3F5806F02
:1008680002D0B3F5C06F7AD16A8922F00C039BB22B
:1008780003B91AB9BD214A4800F084F9AB8943B1DC
:10088800B3F5807F05D0B3F5007F02D0B3F5407F84
:100898006AD1AB8973B1414B9C420BD0A3F5744329
:1008A8009C4207D003F580639C4203D0C2213C4898
:1008B80000F068F9238A9BB2EA8823F44053134373
:1008C8002382A3899BB2A98828896A8901430A439C
:1008D80023F4B05323F00C031343A381A38A9BB2E0
:1008E800AA8923F440731343A38201A8FFF7FAFEF1
:1008F8002A4B9C423DD0039BA28912F4004F3AD167
:1009080003EB830303EB830329688900B3FBF1F14D
:10091800254BA3FB012358090501642300FB13138E
:10092800A28912F4004F2FD11B0132331E4AA2FBB9
:100938000323C3F343132B439BB2238107B030BD7A
:10094800B921174800F01EF975E7BA21144800F0DC
:1009580019F976E7BB21124800F014F97CE7BC21AD
:100968000F4800F00FF97FE7BE210D4800F00AF9A3
:100978008FE7049BC0E703EB830303EB830329683A
:100988004900B3FBF1F1C3E7DA003232064BA3FBAF
:100998000232C2F3421242EA0503CDE700380140B1
:1009A800D42700081FAA44001F85EB5138B5044618
:1009B8000D46164B984214D0A3F57443984210D0B4
:1009C80003F5806398420CD003F58063984208D001
:1009D80003F58063984204D04FF4B1710C4800F0DD
:1009E800D1F8012D05D855B1A38943F40053A3814B
:1009F80038BD40F26311064800F0C4F8F3E7A38954
:100A08009BB223F400539BB2A381F1E70038014065
:100A1800D427000838B505460C46124B984214D026
:100A2800A3F57443984210D003F5806398420CD024
:100A380003F58063984208D003F58063984204D098
:100A480040F25F21084800F09DF8B4F5007F03D21A
:100A5800C4F30804AC8038BD4FF41871024800F0A4
:100A680091F8F5E700380140D427000838B5054665
:100A78000C46274B984214D0A3F57443984210D0E3
:100A880003F5806398420CD003F58063984208D040
:100A980003F58063984204D040F286311D4800F087
:100AA80071F8012C13D0802C11D0402C0FD0202CA1
:100AB8000DD0102C0BD0B4F5807F08D0B4F5007F92
:100AC80005D0082C03D0042C01D0022C07D1B4F592
:100AD800007F0AD02B881C4218D0012038BD40F274
:100AE80087310C4800F04EF8F1E7094B9D42F1D0F0
:100AF800A3F574439D42EDD003F580639D42E9D090
:100B080040F28B31034800F03DF8E3E70020E5E7C9
:100B180000380140D4270008FEE7000008B5034864
:100B280000F054F80120FFF7F7FF00BF082800087D
:100B380008B503460C4A12685AB10B4A10680333C9
:100B480023F003030344094A934206D8064A136074
:100B580008BD054A06491160EFE701F0C7F80C2304
:100B680003604FF0FF30F3E7A0000020004C0020A6
:100B78006401002001230360014B0B60704700BF34
:100B88001800002008B50A460146024800F004F89B
:100B9800FFF7C4FF1C2800080FB400B583B004ABEE
:100BA80053F8042B01938021074801F0AFF900287E
:100BB80004DC03B05DF804EB04B07047014602485A
:100BC80000F044F8F5E700BFA800002010B504467F
:100BD80001F0B2F80146204600F038F80121024839
:100BE80000F034F810BD00BFE02800082DE9F043FC
:100BF80085B004460F46435633BB04252846214694
:100C0800ABBE0446384605B0BDE8F08304AA1344D9
:100C1800002203F8102C4FF00408E94640464946E4
:100C2800ABBE8046761B002EECD03546102E28BF72
:100C380010250023AB42E9D214F9011B04AA1A4477
:100C480002F8101C0133F5E70E46ECE708B5FFF78C
:100C5800CDFF08BD08B500F0FDF8024A024B9A60C6
:100C680008BD00BF0000000800ED00E008B500F076
:100C780019F908BDF8B504460D4617461E4627481B
:100C8800FFF78AFF21682648FFF786FF6168254835
:100C9800FFF782FFA1682448FFF77EFFE168234839
:100CA800FFF77AFF21692248FFF776FF616921483B
:100CB800FFF772FFA1692048FFF76EFFE1691F483F
:100CC800FFF76AFF1E48FFF767FF29461D48FFF731
:100CD80063FF1D4CE16A1D48FFF75EFF216B1C484E
:100CE800FFF75AFFE16B1B48FFF756FF15F0800F1F
:100CF8000AD115F4004F0CD11748FFF74DFF06999C
:100D08001648FFF749FFF8BD39461548FFF744FF75
:100D1800EFE731461348FFF73FFFEDE748280008A3
:100D2800582800086828000878280008882800083B
:100D380098280008A8280008B8280008C82800082B
:100D4800D8280008E428000800ED00E0F42800088E
:100D58000429000814290008442900084C2900081F
:100D6800242900083429000883691A888A4201D096
:100D7800002070470268033A012A01D90020704711
:100D8800023383610120704782B0002301930093EE
:100D98002C4A136843F4803313602A4B1B6803F40E
:100DA80000330093019B01330193009B1BB9019B06
:100DB800B3F5A06FF1D1234B1B6813F4003F06D0A5
:100DC80001230093009B012B04D002B0704700233D
:100DD8000093F7E71C4B1A6842F010021A601A6871
:100DE80022F003021A601A6842F002021A60A3F5A0
:100DF80080535A685A605A685A605A6842F4806246
:100E08005A605A6822F47C125A605A6842F4E8120E
:100E18005A601A6842F080721A600A4B1B6813F015
:100E2800007FFAD0074B5A6822F003025A605A68CA
:100E380042F002025A60034B5B6803F00C03082B74
:100E4800F9D1C2E7001002400020024008B5FFF7C0
:100E58009BFF08BD08B5104B1A6842F001021A60E2
:100E680059680E4A0A405A601A6822F0847222F4BD
:100E780080321A601A6822F480221A605A6822F4B2
:100E8800FE025A604FF41F029A60FFF7DFFF044B1F
:100E98004FF000629A6008BD001002400000FFF8A1
:100EA80000ED00E01F4B5B6803F00C03042B15D02A
:100EB800082B17D01BB11C4B1C4A1A6002E01A4BB6
:100EC8001A4A1A60174B5B68C3F30313184AD35CBA
:100ED800DAB215490B68D3400B607047124B154ABC
:100EE8001A60EFE70F4A53685268C3F3834302332B
:100EF80012F4803F05D1104A02FB03F30A4A13603B
:100F0800E0E7084A526812F4003F05D00B4A02FB9A
:100F180003F3054A1360D5E7064A02FB03F3024AC6
:100F28001360CFE7001002403000002000127A0062
:100F380020000020001BB70000093D00808D5B00E9
:100F480010B582B0044608462160A280ADF804209E
:100F580048238DF8073001238DF8063001A9FFF7E3
:100F680007FA204602B010BD08B581880068FFF76F
:100F780099FAB0FA80F0400908BD013901D000BFE4
:100F8800FBE7704770B5064641F48055074C294683
:100F98002046FFF7E3FA4FF6FF713046FFF7EDFF03
:100FA80029462046FFF70AFB70BD00BF0008014034
:100FB80070B582B0044601210420FFF7F5FB102329
:100FC8008DF8073003238DF8063041F2FF13ADF892
:100FD80004302B4E01A93046FFF7CAF94FF480714F
:100FE8003046FFF7EBFA274D29462046FFF7C5FFA5
:100FF80030212046FFF7C6FF29462046FFF7BDFFF0
:1010080030212046FFF7BEFF29462046FFF7B5FFEF
:1010180030212046FFF7B6FF29462046FFF7ADFFEF
:1010280038212046FFF7AEFF29462046FFF7A5FFE7
:101038000C212046FFF7A6FF29462046FFF79DFF13
:1010480001212046FFF79EFF29462046FFF795FF1E
:1010580006212046FFF796FF29462046FFF78DFF19
:1010680002212046FFF78EFF29462046FFF785FF1D
:101078004FF480713046FFF771FA204602B070BD18
:10108800000801409F86010038B505460C4694F9D2
:10109800001089B22846FFF775FF14F9013F002BAD
:1010A800F5D138BD70B505460E46084C4FF4807131
:1010B8002046FFF783FA31462846FFF763FF4FF4CF
:1010C80080712046FFF74AFA70BD00BF0008014052
:1010D80008B542F08002012903D091B2FFF7E2FF80
:1010E80008BD4032F9E770B506460D4600240E2CBF
:1010F80006DC295789B23046FFF744FF0134F6E78A
:1011080070BD38B504460D4600221146FFF7E0FFD2
:1011180029462046FFF7E7FF38BD38B504460D4697
:1011280000220121FFF7D4FF29462046FFF7DBFF05
:1011380038BD38B504460D460F220021FFF7C8FF19
:10114800A9B22046FFF71EFF38BD000010B50446BF
:10115800042935D8DFE801F0031019222B000022FA
:101168000121FFF7B5FF1B492046FFF78DFF1A49FC
:101178002046FFF702FF10BD00221146FFF7A8FF27
:1011880014492046FFF780FFF1E700220121FFF70D
:101198009FFF12492046FFF777FFE8E70022114634
:1011A800FFF796FF0E492046FFF76EFFDFE70022A4
:1011B8000121FFF78DFF0B492046FFF765FFD6E7B2
:1011C80000221146FFF784FF07492046FFF75CFF1E
:1011D800CDE700BF9029000880969800A029000854
:1011E800B0290008C0290008D029000810B582B02D
:1011F800044608462160A280ADF8042010238DF82B
:10120800073001238DF8063001A9FFF7B1F8204611
:1012180002B010BD08B5012281880068FFF7FEF909
:1012280008BD08B5002281880068FFF7F7F908BDF6
:10123800013801D000BFFBE7704700230E2B03DC09
:101248002022C2540133F9E70020704790F900309A
:10125800302B01D00846704790F90130202BF9D087
:1012680001230E2B0CDC30B45C1EC556055501332A
:101278000E2BF9DD202383730139084630BC7047F3
:10128800202383730139E5E72DE9F04385B005464E
:101298009046994658EA09031FD0002A79F10003BD
:1012A80021DB00260024B8F1010F79F1000320DBCF
:1012B8000A2200234046494600F05AFB671C04AB4B
:1012C8001C4404F8102C0A2200234046494600F02A
:1012D8004FFB804689463C46E5E7FFF7AEFF3023E3
:1012E8002B70012424E0D2F1000869EB490901269A
:1012F800D8E7002302E02022EA5401330E2B0ADC4F
:101308009C42F8DDE21A013A04A90A4412F8102CAA
:101318003032EA54F1E75EB10E23002B05DDEA18FE
:1013280012F9012CEA54013BF7E72D232B70013405
:10133800204605B0BDE8F0832DE9F8430C469146F8
:1013480000F0D0FC05468846484600F0CBFC013C3E
:10135800032C1FD8DFE804F002090D152E1848EBFE
:10136800010730463946BDE8F8832E1A68EB0107B5
:10137800F7E705FB01F100FB0811A5FB00670F4427
:10138800EFE702460B462846414600F0F1FA0646CA
:101398000F46E6E700260027E3E7000030B587B0F0
:1013A800012144F20400FFF7FFF94FF40073ADF890
:1013B800143018238DF8173003258DF81650164C65
:1013C80005A92046FEF7D4FF4FF48063ADF814302A
:1013D80004238DF817308DF8165005A92046FEF71E
:1013E800C7FF4FF4E13301930023ADF80830ADF89F
:1013F8000A30ADF80C30ADF810300C23ADF80E30D3
:1014080004F5405401A92046FFF7F4F901212046CC
:10141800FFF7CCFA07B030BD0008014038B50446E4
:101428004D1E69B114F9011B89B20648FFF7F2FA9B
:1014380040210448FFF71AFB0028F9D02946EFE7B6
:1014480038BD00BF003801402DE9F04F9DB0FFF7CF
:10145800A5FF01210C20FFF7A7F91023ADF86C3088
:1014680028268DF86F6003258DF86E50B54C1BA9A2
:101478002046FEF77DFF0823ADF86C308DF86F60CD
:101488008DF86E501BA92046FEF772FF17A8FFF7CC
:10149800D4FE13A8FFF7D1FE8246AB4B93E80300B6
:1014A80011908DF8481010A8FFF782FD4FF4805274
:1014B800214608A8FFF79AFE202221460DEB0600D8
:1014C800FFF794FE4FF4807221460CA8FFF78EFEBA
:1014D8004FF4007221460EA8FFF788FE4FF48042B1
:1014E800214602A8FFF72CFD4FF40052214604A81C
:1014F800FFF726FD4FF40042214606A8FFF720FD1E
:101508000022002317A8FFF7BFFE019017A910A813
:10151800FFF7F7FD4FF00008C346C1464746464669
:101528005CE0AF426DD100263EE09DF94C302D2B9A
:101538007DD1AAF102061CAB334403F8242C76E0D3
:10154800B9F1000F17DC019B002BECDD5E1E1CAB14
:101558003344202203F8142C012E14D02EB91CABCE
:101568003344302203F8142C013617A910A8FFF7CA
:10157800C8FD0196D7E79DF9441010A8FFF7D9FDDB
:101588004FF00009CFE79DF95C302D2BE6D1019B88
:101598009E1E1CAB334403F8142CDFE708AB03EBA7
:1015A800C600FFF73EFE0136032EF7DD4FF0FF378A
:1015B800002600E00136022E08DC02AB03EBC60071
:1015C800FFF7D2FC0028F5D03746F3E7002FC0F22A
:1015D800C481B8F1000F30D02F462646594D10214E
:1015E8002846FEF75FFF0090041C18BF012408215D
:1015F8002846FEF757FF0346051C18BF0125A642DB
:101608008FD0002E8FD1002F8DD1009A002A8AD03A
:10161800002B88D1BAF1000F92DD0AF1FF361CAB1E
:101628003344202203F8242C012E3FF47EAF13A963
:1016380010A8FFF772FDB24675E70026032E06DCF8
:1016480008AB03EBC600FFF7E5FD0136F6E7002619
:10165800032E0DDC08AB03EBC600FFF7E2FD02AB7F
:1016680003EBC700FFF780FC08B90136F0E7B34683
:101678000BEB4B031F44FFB27B1C5BB20B2B1ED042
:101688000A2B67D00C2B00F0D88007F1310676B210
:10169800B9F1000F40F34A81BAF1090F00F3408114
:1016A8000AF101011CAB9A440AF8246C13A8FFF74D
:1016B800CDFD824613A910A8FFF72FFD15E0B9F15B
:1016C800000F25DDBAF1090F1CDC0AF101011CAB82
:1016D8009A4430230AF8243C13A8FFF7B7FD824642
:1016E80013A910A8FFF719FD3026184F32461849DC
:1016F800384600F001FB1E213846FFF78FFE4FF0F9
:1017080001082CE1002110A8FFF720FD5146E3E76E
:10171800019B092B0FDC591C1CAAD318302203F893
:10172800142C17A8FFF792FD019017A910A8FFF72E
:10173800E8FC3026D9E7012110A8FFF707FD019939
:10174800EFE700BF000C0140E02900082801002055
:10175800E8290008BAF1000F67DD9DF94C30202B0D
:101768002DD0302B02D1B9F1040F33D013AA4FFA80
:1017780089F117A8FFF7E0FD7BA3D3E90023824294
:101788008B4132DB02460B4617A8FFF77DFD01901F
:1017980017A910A8FFF7B5FC13A8FFF74EFD82465E
:1017A80013A910A8FFF7B9FC4FF001091CAB4B4473
:1017B80013F92C1C10A8FFF7BCFC2A2695E7042176
:1017C80010A8FFF7C3FC13A910A8FFF7A6FC4FF059
:1017D800010801E7022110A8FFF7B8FC13A910A817
:1017E800FFF79BFC4FF00108F6E613A8FFF725FD6D
:1017F800824613A910A8FFF790FC9DF9441010A881
:10180800FFF797FC032110A8FFF7A0FC0022002394
:1018180017A8FFF739FD019017A910A8FFF771FC69
:101828004FF001084FF00009D6E609F10109B9F1B6
:10183800040FBBDD4FF00109B8E7B9F1000F2CD058
:101848009DF94C30202B32D0302B3BD013AA4FFAC5
:1018580089F117A8FFF770FD43A3D3E9002382425B
:101868008B413DDB02460B4617A8FFF70DFD0190A3
:1018780017A910A8FFF745FC13A8FFF7DEFC82465E
:1018880013A910A8FFF749FC9DF9441010A8FFF709
:1018980050FC23264FF0000927E70022002317A851
:1018A800FFF7F2FC17A910A8FFF72BFCCEE70421DD
:1018B80010A8FFF74BFC13A910A8FFF72EFC4FF058
:1018C800010889E6B9F1040FC0D1022110A8FFF779
:1018D8003DFC13A910A8FFF720FC4FF001087BE698
:1018E80013A8FFF7AAFC824613A910A8FFF715FC56
:1018F8009DF9441010A8FFF71CFC032110A8FFF75E
:1019080025FC0022002317A8FFF7BEFC019017A9A9
:1019180010A8FFF7F6FB4FF001084FF000095BE64F
:10192800002110A8FFF712FC5146BFE6019B092BC6
:101938000DDC591C1CAAD31803F8146C17A8FFF760
:1019480085FC019017A910A8FFF7DBFBCDE6012164
:1019580010A8FFF7FBFB0199F0E74FF000084FF4E0
:101968007A70FFF765FC37E6FF7FC6A47E8D03001B
:101978007BB972B90029BEBF00204FF0004106E0D4
:1019880008BF00281CBF6FF000414FF0FF3000F087
:10199800A7B9ADF1080C6DE904CE002909DB002BCD
:1019A8001ADB00F035F8DDF804E0DDE9022304B0C5
:1019B8007047404261EB4101002B1BDB00F028F827
:1019C800DDF804E0DDE9022304B0404261EB4101A7
:1019D800524263EB43037047524263EB430300F008
:1019E80017F8DDF804E0DDE9022304B0404261EBBA
:1019F80041017047524263EB430300F009F8DDF8F8
:101A080004E0DDE9022304B0524263EB430370476C
:101A18002DE9F0478C460446089E002B40F086804E
:101A28008A42154648D9B2FA82F24AB1C2F1200771
:101A380001FA02F320FA07F7954047EA030C9440AD
:101A48004FEA154EBCFBFEF71FFA85F80EFB17C3CD
:101A580007FB08F9210C41EA0343994509D9EB181A
:101A680007F1FF3180F0E180994540F2DE80023FC6
:101A78002B44A3EB0903B3FBFEF00EFB103300FB72
:101A880008F1A4B244EA0344A14209D92C1900F18F
:101A9800FF3380F0C880A14240F2C58002382C4450
:101AA80040EA07400027641A1EB10023D440C6E963
:101AB80000433946BDE8F087002A54D0B2FA82F2D2
:101AC800002A40F0B4800127491B4FEA15481FFA45
:101AD80085F9B1FBF8FE08FB1E1109FB0EF04FEA71
:101AE800144C4CEA0143984207D9EB180EF1FF3128
:101AF80002D2984200F2EB808E461B1AB3FBF8F034
:101B080008FB103309FB00F9A4B244EA0344A145D9
:101B180007D92C1900F1FF3302D2A14500F2DB806E
:101B28001846A4EB090440EA0E40BDE78B4208D9E9
:101B3800002E75D00027C6E9000138463946BDE8B1
:101B4800F087B3FA83F77FB98B4202D3824200F25F
:101B5800BC80841A61EB030301209C46002EA8D0A8
:101B6800C6E9004CA5E7FFDEC7F12005BB4022FA15
:101B780005FC4CEA030C21FA05F44FEA1C4EB4FBB1
:101B8800FEF91FFA8CF80EFB194420FA05F3B94048
:101B980009FB08FA19430B0C43EA0444A24502FA6C
:101BA80007F200FA07F30BD91CEB040409F1FF3024
:101BB80080F08980A24540F28680A9F10209644438
:101BC800A4EB0A04B4FBFEF00EFB104400FB08FA79
:101BD80089B241EA0444A24508D91CEB040400F187
:101BE800FF316CD2A2456AD90238644440EA094000
:101BF800A0FB0289A4EB0A044C454146CE4655D3C6
:101C080052D0002E6AD05A1A64EB0E0404FA05F575
:101C180022FA07F3FC401D43C6E90054002748E7B1
:101C28003746304645E718463AE70F4621E79540DC
:101C3800C2F1200321FA03F04FEA1548B0FBF8F788
:101C48001FFA85F908FB170E24FA03FC914007FBDD
:101C580009FA4CEA0101080C40EA0E40824504FAF0
:101C680002F407D9281807F1FF332AD2824528D968
:101C7800023F2844A0EB0A00B0FBF8FC08FB1C005C
:101C88000CFB09F389B241EA00418B4208D9691873
:101C98000CF1FF3011D28B420FD9ACF1020C294460
:101CA800C91A4CEA074714E74345AAD2B8EB020120
:101CB80069EB0C0201389646A3E78446F0E708462C
:101CC80094E71F46D6E781467AE7384646E7AEF1FD
:101CD800020E2B4411E702382C4422E73746E8E687
:101CE800704700BF0A22002100F0DAB8014B1868DB
:101CF800704700BF340000200EB46FF0004100B5FB
:101D08009CB01DAB029006900791049108480949C0
:101D180053F8042B0591006802A9019300F060F9BB
:101D28000022029B1A701CB05DF804EB03B07047E8
:101D3800340000200802FFFF034613F8012B002A95
:101D4800FBD1181A013870472DE9F04F1F468A4613
:101D58000B4689B09346514A07901D4615F8014B2A
:101D6800A65C16F0080652D12D2C52D101262C78EB
:101D78009D1C002F00F08D80102F09D1302C07D129
:101D88002B7803F0DF03582B7ED110276C780235AF
:101D9800002E43D14FF0FF396FF000483A46FB1749
:101DA80048464146CDE9022300F0C6FCCDE90401CE
:101DB8009646002100220023CDE90012A4F1300C40
:101DC800BCF1090F2FD86446A7423DDD591C1BD032
:101DD800DDE90401DDE90023994208BF904230D3D0
:101DE80001D1A6452DDBDDE901134B43009803998A
:101DF80000FB01330299A1FB00010219194441EBD0
:101E0800E473CDE90023012315F8014BD6E72B46EF
:101E1800A3E72B2C04BF2C789D1CAAE74FF00009E0
:101E28004FF00048BAE7A4F1410CBCF1190F01D8F2
:101E3800373CC9E7A4F1610CBCF1190F04D8573C31
:101E4800C2E74FF0FF33DFE75A1C0CD12223079A71
:101E5800CDE900981360BBF1000F10D1DDE9000156
:101E680009B0BDE8F08F36B1DDE90012494262EBF6
:101E78004202CDE90012BBF1000FEFD00BB105F122
:101E8800FF3ACBF800A0E9E73024002F80D10827DB
:101E98007EE7302C3FF474AF0A2779E7ED29000874
:101EA80013460A46014602480068FFF74DBF00BFC7
:101EB8003400002030B5141E05469BB0184605DADC
:101EC8008B234FF0FF302B601BB030BD4FF40273F3
:101ED800ADF80C300CBF234604F1FF330293059391
:101EE8004FF6FF7300910491ADF80E3002461E9B29
:101EF8006946284600F074F8431CBCBF8B232B604E
:101F0800002CE1D00022009B1A70DDE707B5009392
:101F180013460A46014603480068FFF7CBFF03B0A3
:101F28005DF804FB340000202DE9F0478E688246F6
:101F38009E420C469146984638D8B1F80CC01CF41D
:101F4800906F31D062692568096902EB42026F1A05
:101F580002EBD272013355103B449D4238BF1D46F7
:101F68001CF4806F30D0294600F040FB064650B97B
:101F78000C234FF0FF30CAF80030A38943F0400328
:101F8800A381BDE8F0873A46216900F0BBFAA3892E
:101F980023F4906343F08003A38126613E442660C6
:101FA80046466561ED1BA560464500D94646324662
:101FB8004946206800F0B4FAA36800209B1BA36080
:101FC80023681E442660DCE72A4600F069FB0646C3
:101FD8000028E2D12169504600F0BCFAC8E70000A9
:101FE8002DE9F04F1E468B899DB01B0607460D460E
:101FF80014460ED50B6963B9402100F0F7FA286042
:10200800286120B90C233B604FF0FF30C9E0402322
:102018006B610023099320238DF8293030234FF07A
:10202800010ADFF898918DF82A30039623461E4658
:1020380013F8012B0AB1252AF9D1B6EB040B0BD002
:102048005B46224629463846FFF76EFF013000F00E
:10205800A380099B5B4409933378002B00F09C8094
:1020680000234FF0FF32CDE905230136049307938F
:102078008DF853301A933446052214F8011B4F4843
:1020880000F032FA049BC0B9D90644BF20228DF86B
:1020980053201A0744BF2B228DF8532032782A2A5E
:1020A80013D0344600200A26079A214611F8013B2E
:1020B800303B092B4BD970B914E0A0EB09000AFAA0
:1020C80000F0184304902646D5E7039A111D1268BC
:1020D8000391002A01DB079204E0524243F0020315
:1020E8000792049323782E2B0CD163782A2B33D1B3
:1020F800039B02341A1D1B680392002BB8BF4FF0D4
:10210800FF3305932E4E03222178304600F0ECF978
:1021180038B14023801B03FA00F0049B01340343C9
:10212800049314F8011B062226488DF8281000F0A5
:10213800DBF9002838D0244B13BB039B073323F06B
:10214800070308330393099B434409936EE706FB8F
:10215800023201200C46A8E700230A26194601345A
:102168000593204610F8012B303A092A03D9002B91
:10217800C8D00591C6E706FB012101230446F0E714
:1021880003AB00932A46114B04A93846AFF30080ED
:10219800B0F1FF3F8046D6D1AB895B063FF534AF3F
:1021A80009981DB0BDE8F08F03AB00932A46074B92
:1021B80004A9384600F082F8EAE700BFED2A0008D3
:1021C800F32A0008F72A000800000000311F000861
:1021D8002DE9F04791461F468A680B6906469342E7
:1021E800B8BF1346C9F8003091F843200C46DDF813
:1021F800208012B10133C9F800302368990642BF24
:10220800D9F800300233C9F80030256815F0060502
:1022180007D104F1190AE368D9F800209B1AAB42E8
:1022280029DC94F843302268003318BF0123920652
:102238002ED404F1430239463046C047013021D03C
:102248002368E56803F00603042B18BF0025D9F8B6
:1022580000204FF0000908BFAD1AA368226908BF23
:1022680025EAE5759342C4BF9B1AED181A344D450B
:102278001AD1002008E00123524639463046C047AB
:10228800013003D14FF0FF30BDE8F0870135C2E7D8
:102298003020E11881F843005A1C94F84510224474
:1022A800023382F84310C4E70123224639463046F8
:1022B800C0470130E6D009F10109D8E72DE9F0431C
:1022C80006460C4601F14300097E85B06E29984602
:1022D80017460C9B00F0BB8024D8632939D00AD854
:1022E800002900F0C480582900F0928004F14205CA
:1022F80084F8421035E0642901D06929F6D12568AF
:102308001A6815F0800F02F104012CD012681960C8
:10231800002A03DA2D23524284F84330DFF8C0C183
:102328000A233FE0732900F0A68008D86F2921D03E
:102338007029DBD1226842F02002226003E075296F
:1023480018D07829D2D17822DFF898C184F84520AE
:1023580062E01A6804F14205111D1960136884F8D7
:102368004230012394E0126815F0400F196018BF3D
:1023780012B2CDE7D4F800C01A681CF0800F02F141
:1023880004051D6001D0126803E01CF0400FFAD06C
:1023980012886F290CBF08230A23DFF844C10021E3
:1023A80084F843106568002DA8BF2168A560A4BF04
:1023B80021F0040121600AB9002D46D00546B2FB80
:1023C800F3F103FB112E1CF80EE0934205F801ED22
:1023D80039D9082B0BD12368DA0708D52369626835
:1023E8009A42DEBF302305F8013C05F1FF35401B5A
:1023F8002061CDF800803B4603AA21463046FFF70E
:10240800E7FE013049D14FF0FF3005B0BDE8F08359
:10241800DFF8CCC084F845101D68216855F8042BF6
:102428001D600D060BD5CD0744BF41F0200121608A
:102438001AB9236823F0200323601023AFE74B0663
:1024480048BF92B2EFE70A46B9E70546C1E71A68FE
:10245800D4F800C0151D61691CF0800F1D60136859
:1024680001D0196003E01CF0400FFAD01980002356
:1024780005462361BDE71A68111D1960156800211A
:102488006268284600F030F808B1401B6060636855
:102498002361002384F84330ABE723692A46394691
:1024A8003046C0470130AED023689B0713D4E0689C
:1024B800039B9842B8BF1846A7E701234A46394606
:1024C8003046C04701309ED00135E368039A9B1A15
:1024D800AB42F2DCEBE7002504F11909F5E700BF90
:1024E800FE2A00080F2B000810B5C9B2024490421A
:1024F800034601D1002303E01C7801308C42F6D159
:10250800184610BD0A44914200F1FF3300D17047CC
:1025180010B511F8014B914203F8014FF9D110BDE4
:10252800884210B501EB020302D983421C4607D842
:10253800421E994208D011F8014B02F8014FF8E702
:1025480083189A1A9A4200D110BD14F8011D03F895
:10255800011DF7E738B50546002943D051F8043C7A
:102568000C1F002BB8BFE41800F0D0F81E4A1368FF
:10257800104633B9636014602846BDE8384000F05F
:10258800CBB8A3420BD921686218934201BF1A68DD
:102598005B685218226063600460EDE713465A686E
:1025A8000AB1A242FAD919685818A0420BD120687A
:1025B8000144581882421960DED1106852680144FB
:1025C80019605A60D8E702D90C232B60D4E7206839
:1025D80021188A4201BF1168526809182160626097
:1025E8005C60C9E738BD00BF48010020F8B5CD1CC4
:1025F80025F0030508350C2D38BF0C25002D06469F
:1026080001DBA94203D90C2333600020F8BD00F098
:102618007DF821490A6814469CB9204F3B6823B9C4
:102628002146304600F062F838602946304600F00E
:102638005DF8431C23D10C233046336000F06CF85E
:10264800E3E723685B1B17D40B2B03D923601C44D7
:10265800256004E06368A2420CBF0B6053603046FB
:1026680000F05AF804F10B00231D20F00700C21AED
:10267800CCD01B1AA350C9E722466468CCE7C41C17
:1026880024F00304A042E3D0211A304600F02EF8CB
:102698000130DDD1CFE700BF480100204C01002008
:1026A800F8B5074614460E4621B91146BDE8F8406C
:1026B800FFF79CBF22B9FFF74DFF25462846F8BD16
:1026C80000F030F8A0420FD221463846FFF78EFFBF
:1026D80005460028F2D031462246FFF713FF31465F
:1026E8003846FFF737FFE9E73546E7E738B500230F
:1026F800054C054608462360FEF71AFA431C02D12A
:10270800236803B12B6038BD50010020014800F058
:1027180011B800BF58010020014800F00CB800BFF4
:102728005801002051F8043C181F002BBCBF0B585F
:10273800C01870477047704753B94AB9002908BF95
:1027480000281CBF4FF0FF314FF0FF30FFF7C8BA29
:10275800ADF1080C6DE904CEFFF75AF9DDF804E095
:10276800DDE9022304B070472E2E2F737973746548
:102778006D2F7372632F73746D333266312D7374DA
:10278800647065726970682F73746D3332663130A6
:10279800785F6770696F2E63000000002E2E2F731C
:1027A800797374656D2F7372632F73746D3332662A
:1027B800312D7374647065726970682F73746D332A
:1027C80032663130785F7263632E63002E2E2F736A
:1027D800797374656D2F7372632F73746D333266FA
:1027E800312D7374647065726970682F73746D33FA
:1027F80032663130785F75736172742E6300000041
:1028080061626F727428292C2065786974696E6713
:102818002E2E2E006173736572745F706172616D24
:102828002829206661696C65643A2066696C6520B0
:10283800222573222C206C696E652025640A00000D
:10284800537461636B206672616D653A0A0000001B
:10285800205230203D2020253038580A0000000042
:10286800205231203D2020253038580A0000000031
:10287800205232203D2020253038580A0000000020
:10288800205233203D2020253038580A000000000F
:1028980020523132203D20253038580A00000000EF
:1028A800204C52203D2020253038580A00000000D6
:1028B800205043203D2020253038580A00000000D1
:1028C80020505352203D20253038580A000000007F
:1028D8004653522F4641523A0A00000020434653BD
:1028E80052203D2020253038580A00002048465301
:1028F80052203D2020253038580A000020444653F5
:1029080052203D2020253038580A000020414653E7
:1029180052203D2020253038580A0000204D4D46D1
:102928004152203D20253038580A000020424641B7
:1029380052203D2020253038580A00004D69736325
:102948000A000000204C522F4558435F5245545509
:10295800524E3D20253038580A0000005B4861720D
:10296800644661756C745D0A000000005B42757313
:102978004661756C745D0A005B55736167654661F5
:10298800756C745D0A000000457272206C6F6E678A
:10299800206E756D202020004572722064697620B3
:1029A8006279207A65726F00457272206C6F6E676B
:1029B80020726573756C740045727220656E74655B
:1029C80072206E756D20200045727220756E6465E8
:1029D80066696E6564202000202B2D2A2F000000D8
:1029E80025630A00002020202020202020202828DD
:1029F80028282820202020202020202020202020B7
:102A080020202020208810101010101010101010F6
:102A18001010101010040404040404040404041026
:102A280010101010101041414141414101010101B4
:102A3800010101010101010101010101010101017E
:102A4800101010101010424242424242020202028A
:102A5800020202020202020202020202020202024E
:102A680010101010200000000000000000000000FE
:102A7800000000000000000000000000000000004E
:102A8800000000000000000000000000000000003E
:102A9800000000000000000000000000000000002E
:102AA800000000000000000000000000000000001E
:102AB800000000000000000000000000000000000E
:102AC80000000000000000000000000000000000FE
:102AD80000000000000000000000000000000000EE
:102AE8000000000000232D302B2000686C4C00658E
:102AF8006667454647003031323334353637383922
:102B08004142434445460030313233343536373854
:082B1800396162636465660027
:082B2000F8EEFF7F0100000048
:102B2800785634120204060800000000010203046B
:102B38000102030406070809A400002000000000A1
:102B48000000000000000000010203040607080955
:102B580000A24A0438000020000000000000000025
:102B6800000000000000000000000000000000005D
:102B7800000000000000000000000000000000004D
:102B8800000000000000000000000000000000003D
:102B9800000000000000000000000000000000002D
:102BA800000000000000000000000000000000001D
:0C2BB8000000000000000000325476987D
:040000050800010DE1
:00000001FF
